:020000040000FA
:060000000A128A11FC2F18
:100912008630F4007408F500F001F00A75300A120E
:100922008A1196240A128A110800F300F201AA2CF5
:10093200831203130C1E9E2C9F2C992C7208730792
:10094200F10071088400000899000130F10071087B
:10095200F20770087202031CAF2CB02C992C08000D
:10096200F7008230F6007608F8007708F60076087D
:10097200F9007408F6007608FA007508F6007608A1
:10098200FB000430F6007608F00078300A128A1173
:1009920096240A128A110800F8008430F7007708BA
:1009A200F9007808F7007708FA007408F70077086A
:1009B200FB007508F7007708FC007608F700770857
:1009C200FD000530F7007708F00079300A128A112D
:1009D20096240A128A110800F7007708F6007608B2
:1009E200F9007408F6007608FA0075080319FA2C63
:1009F200FB2C002D8030F6007608F800042D8130A3
:100A0200F6007608F8000330F6007608F000783039
:100A12000A128A1196240A128A11080083120313F9
:100A2200AF01831603130514831603178801890186
:100A320083160313981618158312031398171816A2
:100A420083160317871119308316031399009A012D
:100A52000A128A1189240A128A111030831203138E
:100A6200A0002008F4005030A1002108F5006430F5
:100A7200A2002208F60004300A128A11CD240A12BA
:100A82008A11103083120313A0002008F4003030C2
:100A9200A1002108F50056300A128A11B1240A1267
:100AA2008A11103083120313A0002008F4003030A2
:100AB200A1002108F5005C300A128A11B1240A1241
:100AC2008A11103083120313A0002008F400303082
:100AD200A1002108F50062300A128A11B1240A121B
:100AE2008A11603083120313A0002008B1005D3028
:100AF200A0002008F400F501F50A31080A128A1153
:100B0200ED240A128A11673083120313A000200811
:100B1200F400F501F50A31080A128A11ED240A12CD
:100B22008A11013083120313A0002008B107683034
:100B32003102031C9D2D9E2D782D5D30A0002008D2
:100B4200B1003108A0002008F400F501F50A603078
:100B52000A128A11ED240A128A1183120313310830
:100B6200A0002008F400F501F50A68300A128A1183
:100B7200ED240A128A11013083120313A000200807
:100B8200B10767303102031CC72DC82DA22D5F307B
:100B9200A0002008F4005530A1002108F5006230C1
:100BA2000A128A11B1240A128A116A3083120313BB
:100BB200A0002008B1006930A0002008F400F5016F
:100BC200F50A31080A128A11ED240A128A117330C9
:100BD20083120313A0002008F400F501F50A31087E
:100BE2000A128A11ED240A128A11013083120313A8
:100BF200A0002008B10772303102031C012E022E20
:100C0200DC2D6930A0002008B1003108A0002008C6
:100C1200F400F501F50A6A300A128A11ED240A126B
:100C22008A11831203133108A0002008F400F50191
:100C3200F50A72300A128A11ED240A128A11013061
:100C420083120313A0002008B10773303102031C82
:100C52002B2E2C2E062E6B30A0002008F4005230D2
:100C6200A1002108F5006C300A128A11B1240A127F
:100C72008A11603083120313A0002008B10069308A
:100C8200A0002008F400F501F50A31080A128A11C1
:100C9200ED240A128A11733083120313A000200874
:100CA200F400F501F50A31080A128A11ED240A123C
:100CB2008A11013083120313A0002008B1076830A3
:100CC2003102031C652E662E402E6930A0002008DA
:100CD200B1003108A0002008F400F501F50A6030E7
:100CE2000A128A11ED240A128A118312031331089F
:100CF200A0002008F400F501F50A68300A128A11F2
:100D0200ED240A128A11013083120313A000200875
:100D1200B10773303102031C8F2E902E6A2E6B3076
:100D2200A0002008F4004430A1002108F500623040
:100D32000A128A11B1240A128A115630831203133D
:100D4200A0002008B1006930A0002008F400F501DD
:100D5200F50A31080A128A11ED240A128A11733037
:100D620083120313A0002008F400F501F50A3108EC
:100D72000A128A11ED240A128A1101308312031316
:100D8200A0002008B1075E303102031CC92ECA2E12
:100D9200A42E6930A0002008B1003108A00020086C
:100DA200F400F501F50A56300A128A11ED240A12EE
:100DB2008A11831203133108A0002008F400F50100
:100DC200F50A5E300A128A11ED240A128A110130E4
:100DD20083120313A0002008B10773303102031CF1
:100DE200F32EF42ECE2E6B30A0002008F4004C30EF
:100DF200A1002108F50058300A128A11B1240A1202
:100E02008A11283083120313A0002008B100323067
:100E1200A0002008B0003230A0002008F400F50144
:100E2200F50A28300A128A11ED240A128A11831255
:100E320003138C1E1D2F1E2F182F1A08A000200826
:100E4200AE0080302E02031C272F282F2E2F2E08B3
:100E5200A0002008A300AF01402F2E08A0002F08F9
:100E6200243E840020088313800009302F020318D7
:100E72003B2F3C2F402F0130A0002008AF07C83085
:100E82002306031D452F462FEC2F02302F06031D8C
:100E92004B2F4C2FEC2F60302402031C512F522F6A
:100EA200732F693024020318572F582F732F5D3088
:100EB2002502031C5D2F5E2F732F68302502031855
:100EC200632F642F732F3008A0002008F400F5016F
:100ED20031080A128A11ED240A128A110130831292
:100EE2000313B0026A302402031C782F792F9C2F3F
:100EF2007330240203187E2F7F2F9C2F6930250226
:100F0200031C842F852F9C2F7430250203188A2FEF
:100F12008B2F9C2F3008A0002008F400F501310827
:100F22000A128A11ED240A128A1101308312031364
:100F3200A0002008B10760302402031CA12FA22FB9
:100F4200C52F693024020318A72FA82FC52F693097
:100F52002502031CAD2FAE2FC52F743025020318B6
:100F6200B32FB42FC52F3008A0002008F400F501DC
:100F720031080A128A11ED240A128A1101308312F1
:100F82000313A0002008B00756302402031CCA2F06
:100F9200CB2FEC2F5F3024020318D02FD12FEC2F50
:100FA20069302502031CD62FD72FEC2F743025026F
:100FB2000318DC2FDD2FEC2F3008A0002008F400EE
:100FC200F50131080A128A11ED240A128A11013040
:100FD20083120313B1023008A0002008F400F501C7
:100FE200F50A31080A128A11ED240A128A11182F01
:0E0FF2000A128A11002883010A128A110F2D9B
:04400E00D4E0FFFFFC
:00000001FF
