:020000040000FA
:060000000A128A11E62F2E
:10025A0064008001840A04060319003404062E2966
:10026A008630F4007408F500F001F00A75300A12BD
:10027A008A1155210A128A1108007E088A007F080D
:10028A0082000A128A1142210A128A118000840A03
:10029A0004087D0603190034FF0A0319FE0A4629D9
:1002AA00F200F3016929831203130C1E5D295E29EA
:1002BA00582973087207F100710884000008990030
:1002CA000130F1007108F30770087302031C6E29EC
:1002DA006F295829080032340034003400340034BD
:1002EA00003400340034003400342834003400343C
:1002FA000034003400340034003400340034013453
:10030A0000340034003402340234013428308312B9
:10031A000313C9004908AA003230C9004908A000DD
:10032A002008C9004908F400F501F50A2A080A124A
:10033A008A11C3210A128A110A128A11E5210A12A4
:10034A008A110800F7008230F6007608F80077086C
:10035A00F6007608F9007408F6007608FA007508BF
:10036A00F6007608FB000430F6007608F0007830D4
:10037A000A128A1155210A128A110800F700770811
:10038A00F6007608F9007408F6007608FA0075088F
:10039A000319D029D129D6298030F6007608F80029
:1003AA00DA298130F6007608F8000330F60076087C
:1003BA00F00078300A128A1155210A128A110800AF
:1003CA004E3083120313C2000030C3000A128A118E
:1003DA0070220A128A11831203133C08C5003B08D3
:1003EA00C4000A128A1111230A128A1183120313F2
:1003FA004208053EC8004808E6006230C2000030E4
:10040A00C3000A128A1170220A128A118312031374
:10041A003C08C5003B08C4000A128A1111230A12BB
:10042A008A11831203134208113EC8004808E500E6
:10043A006508C8004808F400F501F50A66080A12BA
:10044A008A11C3210A128A1108000030FC00003008
:10045A00FB000030FA000030F900701C352A362AF9
:10046A004D2A7408F907750803110318013E031988
:10047A003F2AFA07760803110318013E0319462A90
:10048A00FB07770803110318013E03194D2AFC07DD
:10049A000130F8000310F40DF50DF60DF70DF80B09
:1004AA004F2A01300310F30CF20CF10CF00CFF3E52
:1004BA00031D572A7308720471047004031D662A07
:1004CA00672A322A7C08F3007B08F2007A08F100D6
:1004DA007908F0000800831203133708F30036087E
:1004EA00F2003508F1003408F0004130F700C63058
:1004FA00F6004E30F5006D30F4000A128A112A22F5
:10050A000A128A11730883120313B7007208B6001D
:10051A007108B5007008B4003930B40730300318D8
:10052A003130B507003003180130B6070030031820
:10053A000130B7073408BD003508BE003608BF00D1
:10054A003708C0001030C100400DC00CBF0CBE0CF3
:10055A00BD0CC10BA92AFF303D05BB007F303E050B
:10056A00BC00080083120313BC003C08BB003B0814
:10057A00E800DF2A7C08BB003B08F400F501F50A15
:10058A0068080A128A11C3210A128A117D08831285
:10059A000313BB003B08F400F501F50A68080A12C8
:1005AA008A11C3210A128A11013083120313BB0074
:1005BA003B08E8077B086802031CE42AE52ABF2AED
:1005CA007C08BB003B08E8000A2B6808BB003B0814
:1005DA00F400F501F50A3C080A128A11C3210A122D
:1005EA008A11831203136808BB003B08F400F50163
:1005FA00F50A7B080A128A11C3210A128A110130EC
:10060A0083120313BB003B08E8077D086802031C3A
:10061A000F2B102BEA2A080083120313C701C51FE8
:10062A00172B182B1F2BC409C509C40A0319C50A9D
:10063A00C701C70AC31F222B232B282BC209C309B0
:10064A00C20A0319C30A4208430403192D2B2E2B8D
:10065A005D2BC601C60A3C2B01300310C20DC30D27
:10066A00FF3E031D322B0130FD007D08C607C31F64
:10067A003F2B402B312B43084502031D462B4208D2
:10068A004402031C492B4A2B502B4208C40243083C
:10069A00031CC503C50201300310C30CC20CFF3E84
:1006AA00031D512B0130C602031D5C2B5D2B402B11
:1006BA0047080319612B622B672BC409C509C40AB1
:1006CA000319C50A4508C3004408C2000800F60118
:1006DA00F11F702B712B782BF009F109F00A03191D
:1006EA00F10AF601F60AF31F7B2B7C2B852BF20904
:1006FA00F309F20A0319F30A0130F4007408F60642
:10070A00F701F8017008710403198C2B8D2BC42B87
:10071A00F501F50A9B2B01300310F00DF10DFF3E98
:10072A00031D912B0130F4007408F507F11F9E2B6D
:10073A009F2B902B01300310F70DF80DFF3E031D80
:10074A00A02B71087302031DAC2B70087202031CE4
:10075A00AF2BB02BB72B7008F2027108031CF303FE
:10076A00F302771401300310F10CF00CFF3E031D65
:10077A00B82B0130F502031DC32BC42B9F2B76081F
:10078A000319C82BC92BCE2BF709F809F70A031945
:10079A00F80A7808F1007708F00008006430F000E1
:1007AA000030F100831203135E08F3005D08F200C3
:1007BA000A128A116C230A128A117008831203130F
:1007CA00C8004808E4000A30F0000030F1005E0872
:1007DA00F3005D08F2000A128A116C230A128A11C8
:1007EA00700883120313C8004808E3000A30C200E5
:1007FA000030C3005E08C5005D08C4000A128A11F1
:10080A0011230A128A11831203134208C8004808E6
:10081A00E2001030C8004808F4006408303EC900FD
:10082A004908F50056300A128A11A7210A128A11BC
:10083A00103083120313C8004808F4006308303EDE
:10084A00C9004908F5005C300A128A11A7210A1268
:10085A008A11103083120313C8004808F400620892
:10086A00303EC9004908F50062300A128A11A721F0
:10087A000A128A110800831203138C1E452C462C77
:10088A00022D1A08F0007008E10080306102031C92
:10089A004F2C502C562C6108F0007008E000DF0144
:1008AA00682C6108F0005F08533E840070088313C7
:1008BA00800009305F020318632C642C682C013015
:1008CA00F0007008DF07C8306006031D6D2C6E2C1F
:1008DA00022D02305F06031D732C742C022D60302A
:1008EA005302031C792C7A2C8E2C6930530203187C
:1008FA007F2C802C8E2C5D305402031C852C862C78
:10090A008E2C6830540203188B2C8C2C8E2CB80138
:10091A00B80A6A305302031C932C942CAA2C733005
:10092A0053020318992C9A2CAA2C69305402031CDE
:10093A009F2CA02CAA2C743054020318A52CA62C88
:10094A00AA2C0230F0007008B80060305302031C71
:10095A00AF2CB02CC62C693053020318B52CB62C18
:10096A00C62C69305402031CBB2CBC2CC62C743018
:10097A0054020318C12CC22CC62C0330F000700894
:10098A00B80056305302031CCB2CCC2CE22C5F301F
:10099A0053020318D12CD22CE22C69305402031CC6
:1009AA00D72CD82CE22C743054020318DD2CDE2C00
:1009BA00E22C0430F0007008B80028305302031CFF
:1009CA00E72CE82C022D453053020318ED2CEE2CAF
:1009DA00022D32305402031CF32CF42C022D3E302B
:1009EA0054020318F92CFA2C022D6903031DFE2C5C
:1009FA00FF2C022DE901BA01BA0A08008312031377
:100A0A00CD01CE01CF01D001D101D201831603134A
:100A1A00051483160317880189010430831603130A
:100A2A00810098161815831203139817181683163F
:100A3A000317871119308316031399009A010A12B2
:100A4A008A1135210A128A11533083120313CA00FC
:100A5A004A08FB001030CB004B08FC007330CC0076
:100A6A004C08FD0004300A128A11B7220A128A11B0
:100A7A00103083120313CA004A08F4003030CB0046
:100A8A004B08F50056300A128A11A7210A128A1158
:100A9A00103083120313CA004A08F4003030CB0026
:100AAA004B08F5005C300A128A11A7210A128A1132
:100ABA00103083120313CA004A08F4003030CB0006
:100ACA004B08F50062300A128A11A7210A128A110C
:100ADA00683083120313CA004A08FB005D30CB005A
:100AEA004B08FC006730CC004C08FD0060300A124D
:100AFA008A11B7220A128A115F3083120313CA00BD
:100B0A004A08F4005530CB004B08F50062300A124F
:100B1A008A11A7210A128A11723083120313CA009A
:100B2A004A08FB006930CB004B08FC007330CC004C
:100B3A004C08FD006A300A128A11B7220A128A1179
:100B4A006B3083120313CA004A08F4005230CB00F8
:100B5A004B08F5006C300A128A11A7210A128A1171
:100B6A00683083120313CA004A08FB006930CB00BD
:100B7A004B08FC007330CC004C08FD0060300A12B0
:100B8A008A11B7220A128A116B3083120313CA0020
:100B9A004A08F4004430CB004B08F50062300A12D0
:100BAA008A11A7210A128A115E3083120313CA001E
:100BBA004A08FB006930CB004B08FC007330CC00BC
:100BCA004C08FD0056300A128A11B7220A128A11FD
:100BDA006B3083120313CA004A08F4004C30CB006E
:100BEA004B08F50058300A128A11A7210A128A11F5
:100BFA000A128A118B210A128A110B1D052E062E42
:100C0A00AE2F831203130108833E81000B110130BA
:100C1A00CA004A08E70719306706031D152E162E63
:100C2A00AE2FE701E801312E6808203E84008313C5
:100C3A000008CA004A08F400F50168082A3E840040
:100C4A0000080A128A11C3210A128A11013083127A
:100C5A000313CA004A08E8076808CA00CB014B0810
:100C6A005202031D3A2E4A08510203183D2E3E2E07
:100C7A00192EF32EE801E80A5B2E68081F3E84004D
:100C8A0083130008CA006808203E84004A088000CE
:100C9A006808293E84000008CA0068082A3E8400C1
:100CAA004A0880000130CA004A08E8076808CA00F2
:100CBA00CB014B085202031D642E4A085102031845
:100CCA00672E682E422E0130A002092FE801E80A99
:100CDA00872E68081F3E840083130008CA0068082C
:100CEA00203E84004A0880006808293E84000008E3
:100CFA00CA0068082A3E84004A0880000130CA00F7
:100D0A004A08E8076808CA00CB014B085202031DCB
:100D1A00902E4A0851020318932E942E6E2E0130FB
:100D2A00CA004A08AA07092FE801E80AB52E680886
:100D3A001F3E840083130008CA006808203E84000E
:100D4A004A0880006808293E84000008CA0068082A
:100D5A002A3E84004A0880000130CA004A08E8078F
:100D6A006808CA00CB014B085202031DBE2E4A086E
:100D7A0051020318C12EC22E9C2E0130CA004A0805
:100D8A00A007092FE801E80AE32E68081F3E84003D
:100D9A0083130008CA006808203E84004A088000BD
:100DAA006808293E84000008CA0068082A3E8400B0
:100DBA004A0880000130CA004A08E8076808CA00E1
:100DCA00CB014B085202031DEC2E4A0851020318AC
:100DDA00EF2EF02ECA2E0130AA02092F3808CA00B7
:100DEA00CB014B08003A0319FB2E092F4A08013A96
:100DFA0003193F2E033A03196B2E013A0319992E50
:100E0A00073A0319C72E092FE801742F68082A3EEA
:100E1A008400831300080319132F142F6E2F6808F8
:100E2A00203E8400000803191B2F1C2F6E2F680810
:100E3A002A3E8400053000020318242F252F2C2F68
:100E4A005230CA0068082A3E84004A0880006808AE
:100E5A002A3E840053300002031C342F352F3C2FC6
:100E6A000530CA0068082A3E84004A0880006808DB
:100E7A00203E8400113000020318442F452F4C2FC6
:100E8A007230CA006808203E84004A088000680858
:100E9A00203E840073300002031C542F552F5C2F10
:100EAA001130CA006808203E84004A088000680899
:100EBA00203E84000008CA004A08F400F501F50A39
:100ECA0068082A3E840000080A128A11C3210A12FD
:100EDA008A11013083120313CA004A08E807680816
:100EEA00CA00CB014B085202031D7D2F4A0851024A
:100EFA000318802F812F0B2F4D034E04031D862FBD
:100F0A00872FAE2F0130CF070318D00A0030D00741
:100F1A000130D1070318D20A0030D2074F08013E28
:100F2A00CA0050080318013E003ECB0052084B0687
:100F3A00031DA12F51084A06031DA42FA52FAE2F6A
:100F4A005E08D2005D08D100CF01D001CD01CE01EB
:100F5A00AE2F0A128A1140240A128A11831203132D
:100F6A002A086606031DBA2FBB2F022E2008650623
:100F7A00031DC02FC12F022E6508CA004A08F400BB
:100F8A00F50166080A128A11C3210A128A11013070
:100F9A0083120313CD000030CE000130DD070318A1
:100FAA00DE0A0030DE070A128A11E5210A128A11C6
:100FBA000A128A11D3230A128A11022E0A128A11DC
:100FCA00002883133B30FD000130FE007030FF0023
:100FDA00203084000A128A1146210A128A115330DB
:100FEA0084006A300A128A112D210A128A11830199
:060FFA000A128A11032D0A
:04400E00D4E0FFFFFC
:00000001FF
