:020000040000FA
:060000000A128A11E62F2E
:100012007E088A007F0882000A128A1109200A12C9
:100022008A118000840A04087D0603190034FF0A3D
:100032000319FE0A0D28323400340034003400342F
:1000420000340034003400340034283400340034E6
:1000520000340034003400340034003400340134FD
:10006200003400340034023402340134F7008230A8
:10007200F6007608F8007708F6007608F9007408AA
:10008200F6007608FA007508F6007608FB000430E0
:10009200F6007608F00078300A128A15E5270A126F
:1000A2008A110800F7007708F6007608F90074084C
:1000B200F6007608FA007508031960286128662898
:1000C2008030F6007608F8006A288130F60076085B
:1000D200F8000330F6007608F00078300A128A152C
:1000E200E5270A128A1108004E3083120313C20058
:1000F2000030C3000A128A1100210A128A118312E7
:1001020003133C08C5003B08C4000A128A11A1214E
:100112000A128A11831203134208053EC8004808D6
:10012200E7006230C2000030C3000A128A110021C7
:100132000A128A11831203133C08C5003B08C4004B
:100142000A128A11A1210A128A1183120313420888
:10015200113EC8004808E6006608C8004808F400D6
:10016200F501F50A67080A128A1153200A128A1148
:1001720008000030FC000030FB000030FA000030C4
:10018200F900701CC528C628DD287408F90775080F
:1001920003110318013E0319CF28FA077608031149
:1001A2000318013E0319D628FB0777080311031829
:1001B200013E0319DD28FC070130F8000310F40D9D
:1001C200F50DF60DF70DF80BDF2801300310F30CD7
:1001D200F20CF10CF00CFF3E031DE72873087204C9
:1001E20071047004031DF628F728C2287C08F30066
:1001F2007B08F2007A08F1007908F0000800831207
:1002020003133708F3003608F2003508F10034080A
:10021200F0004130F700C630F6004E30F5006D3088
:10022200F4000A128A11BA200A128A117308831280
:100232000313B7007208B6007108B5007008B40065
:100242003930B407303003183130B50700300318A5
:100252000130B607003003180130B7073408BD007B
:100262003508BE003608BF003708C0001030C10094
:10027200400DC00CBF0CBE0CBD0CC10B3929FF30A8
:100282003D05BB007F303E05BC000800831203130E
:10029200BC003C08BB003B08E9006F297C08BB009E
:1002A2003B08F400F501F50A69080A128A11532085
:1002B2000A128A117D0883120313BB003B08F40063
:1002C200F501F50A69080A128A1153200A128A11E5
:1002D200013083120313BB003B08E9077B08690264
:1002E200031C742975294F297C08BB003B08E900CF
:1002F2009A296908BB003B08F400F501F50A3C089D
:100302000A128A1153200A128A11831203136908EE
:10031200BB003B08F400F501F50A7B080A128A11BA
:1003220053200A128A11013083120313BB003B08C7
:10033200E9077D086902031C9F29A0297A29080080
:1003420083120313C701C51FA729A829AF29C4090E
:10035200C509C40A0319C50AC701C70AC31FB229BE
:10036200B329B829C209C309C20A0319C30A420838
:1003720043040319BD29BE29ED29C601C60ACC29A9
:1003820001300310C20DC30DFF3E031DC22901300F
:10039200FD007D08C607C31FCF29D029C129430804
:1003A2004502031DD62942084402031CD929DA2931
:1003B200E0294208C4024308031CC503C5020130F8
:1003C2000310C30CC20CFF3E031DE1290130C6021B
:1003D200031DEC29ED29D02947080319F129F22937
:1003E200F729C409C509C40A0319C50A4508C30087
:1003F2004408C2000800F601F11F002A012A082A57
:10040200F009F109F00A0319F10AF601F60AF31FDD
:100412000B2A0C2A152AF209F309F20A0319F30A24
:100422000130F4007408F606F701F801700871044F
:1004320003191C2A1D2A542AF501F50A2B2A013018
:100442000310F00DF10DFF3E031D212A0130F400CF
:100452007408F507F11F2E2A2F2A202A01300310D3
:10046200F70DF80DFF3E031D302A71087302031DBC
:100472003C2A70087202031C3F2A402A472A70084D
:10048200F2027108031CF303F30277140130031024
:10049200F10CF00CFF3E031D482A0130F502031D4A
:1004A200532A542A2F2A76080319582A592A5E2ACF
:1004B200F709F809F70A0319F80A7808F10077082A
:1004C200F00008006430F0000030F10083120313E2
:1004D2005F08F3005E08F2000A128A11FC210A1278
:1004E2008A11700883120313C8004808E5000A3015
:1004F200F0000030F1005F08F3005E08F2000A121B
:100502008A11FC210A128A11700883120313C8008F
:100512004808E4000A30C2000030C3005F08C5008A
:100522005E08C4000A128A11A1210A128A118312DA
:1005320003134208C8004808E3001030C800480806
:10054200F4006508303EC9004908F50056300A1229
:100552008A1137200A128A11103083120313C8003D
:100562004808F4006408303EC9004908F5005C30D0
:100572000A128A1137200A128A11103083120313C9
:10058200C8004808F4006308303EC9004908F50075
:1005920062300A128A1137200A128A1108007C304E
:1005A20083120313BD003D08FB001A30BE003E0853
:1005B200FC002430BF003F08FD0056300A128A11A9
:1005C20047210A128A111C3083120313BD003D0811
:1005D200F4005230BE003E08F50058300A128A116B
:1005E20037200A128A111C3083120313BD003D0802
:1005F200F4004530BE003E08F5005E300A128A1152
:1006020037200A128A111C3083120313BD003D08E1
:10061200F4005030BE003E08F50064300A128A1120
:1006220037200A128A111C3083120313BD003D08C1
:10063200F4004C30BE003E08F5006A300A128A11FE
:1006420037200A128A111C3083120313BD003D08A1
:10065200F4004130BE003E08F50070300A128A11E3
:1006620037200A128A111C3083120313BD003D0881
:10067200F4005930BE003E08F50076300A128A11A5
:1006820037200A128A110800831203138C1E4A2B88
:100692004B2B0B2C1A08F0007008E200803062022B
:1006A200031C542B552B5B2B6208F0007008E100F1
:1006B200E0016D2B6208F0006008543E840070086F
:1006C20083138000093060020318682B692B6D2B9D
:1006D2000130F0007008E007C8306106031D722B7C
:1006E200732B0B2C02306006031D782B792B0B2CFD
:1006F20060305402031C7E2B7F2B932B69305402F3
:100702000318842B852B932B5D305502031C8A2BF7
:100712008B2B932B683055020318902B912B932B24
:10072200B801B80A6A305402031C982B992BAF2BDC
:100732007330540203189E2B9F2BAF2B6930550246
:10074200031CA42BA52BAF2B743055020318AA2B24
:10075200AB2BAF2B0230F0007008B80060305402AF
:10076200031CB42BB52BCB2B693054020318BA2BC4
:10077200BB2BCB2B69305502031CC02BC12BCB2BBF
:10078200743055020318C62BC72BCB2B0330F00055
:100792007008B80056305402031CD02BD12BE72B23
:1007A2005F3054020318D62BD72BE72B6930550242
:1007B200031CDC2BDD2BE72B743055020318E22BD4
:1007C200E32BE72B0430F0007008B80056305402D7
:1007D200031CEC2BED2B0B2C7D3054020318F22B57
:1007E200F32B0B2C1A305502031CF82BF92B0B2C74
:1007F2002F3055020318FE2BFF2B0B2C6B03031912
:10080200032C042C092C6A03031D082C092C0B2C25
:10081200EB01EA0108000A128A15D8270A128A1186
:10082200533083120313C9004908FB001030CA0079
:100832004A08FC007330CB004B08FD0004300A125A
:100842008A1147210A128A1183120313DE01DF0182
:10085200EB01EA011030C9004908F4003030CA0047
:100862004A08F50056300A128A1137200A128A11F4
:10087200103083120313C9004908F4003030CA0053
:100882004A08F5005C300A128A1137200A128A11CE
:10089200103083120313C9004908F4003030CA0033
:1008A2004A08F50062300A128A1137200A128A11A8
:1008B20083120313E9010B306902031C612C622CC1
:1008C200632C712C69082A3E840083138001690815
:1008D200203E840080010130C9004908E9075C2CF0
:1008E2006830C9004908FB005D30CA004A08FC00B4
:1008F2006730CB004B08FD0060300A128A11472195
:100902000A128A115F3083120313C9004908F400E6
:100912005530CA004A08F50062300A128A1137209F
:100922000A128A11723083120313C9004908FB00AC
:100932006930CA004A08FC007330CB004B08FD0046
:100942006A300A128A1147210A128A116B30831205
:100952000313C9004908F4005230CA004A08F500DE
:100962006C300A128A1137200A128A1168308312F7
:100972000313C9004908FB006930CA004A08FC0099
:100982007330CB004B08FD0060300A128A114721F8
:100992000A128A116B3083120313C9004908F4004A
:1009A2004430CA004A08F50062300A128A11372020
:1009B2000A128A115E3083120313C9004908FB0030
:1009C2006930CA004A08FC007330CB004B08FD00B6
:1009D20056300A128A1147210A128A116B30831289
:1009E2000313C9004908F4004C30CA004A08F50054
:1009F20058300A128A1137200A128A1128308312BB
:100A02000313C9004908AA003230C9004908A000EE
:100A12002008C9004908F400F501F50A2A080A125B
:100A22008A1153200A128A110A128A1175200A1297
:100A32008A11080083120313CE01CF01D001D10124
:100A4200D201D301831603130514831603178801F9
:100A52008901043083160313810098161815831236
:100A62000313981718168316031787111930831664
:100A7200031399009A010A128A110C240A128A118C
:100A82000B1D442D452D692E831203130108833E4D
:100A920081000B110130CC004C08E80719306806C0
:100AA200031D542D552D692E6A030319592D5A2DF4
:100AB200692EE801E901752D6908203E840083133F
:100AC2000008CC004C08F400F50169082A3E8400B5
:100AD20000080A128A1153200A128A110130831265
:100AE2000313CC004C08E9076908CC00CD014D087E
:100AF2005302031D7E2D4C0852020318812D822DB4
:100B02005D2D5208CC004C08E9009E2D69081F3E5D
:100B1200840083130008CC006908203E84004C083E
:100B220080006908293E84000008CC0069082A3E3A
:100B320084004C0880000130E9026908031DA22DDF
:100B4200A32D872DB42D0130A002CA2D0130CC0077
:100B52004C08AA07CA2D0130CC004C08A007CA2DA8
:100B62000130AA02CA2D3808CC00CD014D08003A46
:100B72000319BC2DCA2D4C08013A0319A42D033ABE
:100B82000319A72D013A0319AC2D073A0319B12D08
:100B9200CA2DE901352E69082A3E84008313000814
:100BA2000319D42DD52D2F2E6908203E840000086C
:100BB2000319DC2DDD2D2F2E69082A3E8400053015
:100BC20000020318E52DE62DED2D5230CC00690808
:100BD2002A3E84004C08800069082A3E8400533073
:100BE2000002031CF52DF62DFD2D0530CC00690801
:100BF2002A3E84004C0880006908203E840011309F
:100C020000020318052E062E0D2E7230CC00690844
:100C1200203E84004C0880006908203E8400733026
:100C22000002031C152E162E1D2E1130CC00690851
:100C3200203E84004C0880006908203E84000008A1
:100C4200CC004C08F400F501F50A69082A3E84003C
:100C520000080A128A1153200A128A1101308312E3
:100C62000313CC004C08E9076908CC00CD014D08FC
:100C72005302031D3E2E4C0852020318412E422EEF
:100C8200CC2D4E034F04031D472E482E692E0130F2
:100C9200D0070318D10A0030D1075208013ECC0018
:100CA20053080318013E003ECD0051084D06031DB6
:100CB2005C2E50084C06031D5F2E602E692E5F08C5
:100CC200D3005E08D200D001D101CE01CF01692E3E
:100CD20083120313981C6E2E6F2E712E1812181683
:100CE2000A128A1145230A128A1183120313E90197
:100CF200E90A972E8312031369082A3E840083139C
:100D020000082A06031D862E872E932E6908203E90
:100D1200840000082006031D8F2E902E932EEA01D8
:100D2200EA0AA42E0130CC004C08E9075F08803A99
:100D3200CC0080304C02031DA02E69085E0203180D
:100D4200A32EA42E7B2E831203136A03031DAA2E45
:100D5200AB2E302FF401F40A5030CC004C08F500D1
:100D620006300A128A1137200A128A11F401F40A93
:100D7200453083120313CC004C08F5000C300A12E4
:100D82008A1137200A128A11F401F40A52308312AE
:100D92000313CC004C08F50012300A128A113720D6
:100DA2000A128A11F401F40A443083120313CC00AC
:100DB2004C08F50018300A128A1137200A128A11DB
:100DC200F401F40A493083120313CC004C08F500F5
:100DD2001E300A128A1137200A128A11F401F40A0B
:100DE200533083120313CC004C08F50024300A124E
:100DF2008A1137200A128A11F401F40A543083123C
:100E02000313CC004C08F5002A300A128A1137204D
:100E12000A128A11F401F40A453083120313CC003A
:100E22004C08F50030300A128A1137200A128A1152
:100E32000A128A11D0220A128A11242F0A128A1146
:100E420045230A128A11831203136A0303192A2FF4
:100E52002B2F1F2F0A128A110C240A128A118312B5
:100E620003132A086706031D372F382F692F20081E
:100E72006606031D3D2F3E2F692F6608CC004C08E5
:100E8200F400F50167080A128A1153200A128A1126
:100E9200013083120313CE000030CF000130DE0791
:100EA2000318DF0A0030DF070A305E065F04031D05
:100EB2005B2F5C2F5F2FEB01EB0A642F0A128A1162
:100EC20075200A128A110A128A1163220A128A11E1
:100ED200831203136B03031D6F2F702F412DF40137
:100EE200F40A4730CC004C08F50006300A128A1189
:100EF20037200A128A11F401F40A413083120313D3
:100F0200CC004C08F5000C300A128A1137200A1264
:100F12008A11F401F40A4E3083120313CC004C08F8
:100F2200F50012300A128A1137200A128A11F401CE
:100F3200F40A413083120313CC004C08F500183038
:100F42000A128A1137200A128A11F401F40A533064
:100F520083120313CC004C08F5001E300A128A11CA
:100F620037200A128A11F401F40A5430831203134F
:100F7200CC004C08F50024300A128A1137200A12DC
:100F82008A11F401F40A453083120313CC004C0891
:100F9200F5002A300A128A1137200A128A110A121F
:100FA2008A11D0220A128A11DB2F0A128A114523D2
:100FB2000A128A11831203136B030319E12FE22F22
:100FC200D62F3C2D0A128A11002883133B30FD00D4
:100FD2000030FE001C30FF00203084000A128A110B
:100FE2000D200A128A11543084006C300A128A15BC
:0E0FF200D0270A128A1183010A128A111B2DC0
:101FA00064008001840A0406031900340406D12F5A
:101FB0008630F4007408F500F001F00A75300A125A
:101FC0008A15E5270A128A150800F200F301F92F95
:101FD000831203130C1EED2FEE2FE82F73087207E8
:101FE000F10071088400000899000130F1007108C7
:101FF000F30770087302031CFE2FFF2FE82F080061
:04400E00D4E0FFFFFC
:00000001FF
