:020000040000FA
:060000000A128A11FC2F18
:100886008630F4007408F500F001F00A75300A129B
:100896008A1150240A128A110800F300F201642C0E
:1008A600831203130C1E582C592C532C72087307F1
:1008B600F10071088400000899000130F100710808
:1008C600F20770087202031C692C6A2C532C08006C
:1008D600F7008230F6007608F8007708F60076080A
:1008E600F9007408F6007608FA007508F60076082E
:1008F600FB000430F6007608F00078300A128A1100
:1009060050240A128A110800F8008430F70077088C
:10091600F9007808F7007708FA007408F7007708F6
:10092600FB007508F7007708FC007608F7007708E3
:10093600FD000530F7007708F00079300A128A11B9
:1009460050240A128A110800F7007708F600760884
:10095600F9007408F6007608FA0075080319B42C35
:10096600B52CBA2C8030F6007608F800BE2C813003
:10097600F6007608F8000330F6007608F0007830C6
:100986000A128A1150240A128A11080083120313CC
:10099600B3010230A0002008B1008316031305142A
:1009A6008316031788018901043083160313810017
:1009B600981618158312031398171816831603171B
:1009C600871119308316031399009A010A128A11A6
:1009D60043240A128A11103083120313A000200840
:1009E600F4005030A1002108F5006430A20022086E
:1009F600F60004300A128A1187240A128A1110306E
:100A060083120313A0002008F4003030A10021084F
:100A1600F50056300A128A116B240A128A11103018
:100A260083120313A0002008F4003030A10021082F
:100A3600F5005C300A128A116B240A128A111030F2
:100A460083120313A0002008F4003030A10021080F
:100A5600F50062300A128A116B240A128A1160307C
:100A660083120313A0002008B5005D30A000200803
:100A7600F400F501F50A35080A128A11A7240A12AC
:100A86008A11673083120313A0002008F400F501D1
:100A9600F50A35080A128A11A7240A128A110130AA
:100AA60083120313A0002008B50768303502031C23
:100AB6005D2D5E2D382D5D30A0002008B50035086F
:100AC600A0002008F400F501F50A60300A128A1128
:100AD600A7240A128A11831203133508A0002008DE
:100AE600F400F501F50A68300A128A11A7240A12E1
:100AF6008A11013083120313A0002008B50767305E
:100B06003502031C872D882D622D5F30A00020083A
:100B1600F4005530A1002108F50062300A128A114E
:100B26006B240A128A116A3083120313A00020086C
:100B3600B5006930A0002008F400F501F50A350873
:100B46000A128A11A7240A128A1173308312031318
:100B5600A0002008F400F501F50A35080A128A11EA
:100B6600A7240A128A11013083120313A000200859
:100B7600B50772303502031CC12DC22D9C2D69307C
:100B8600A0002008B5003508A0002008F400F501F3
:100B9600F50A6A300A128A11A7240A128A118312E8
:100BA60003133508A0002008F400F501F50A723099
:100BB6000A128A11A7240A128A110130831203131A
:100BC600A0002008B50773303502031CEB2DEC2D71
:100BD600C62D6B30A0002008F4005230A100210879
:100BE600F5006C300A128A116B240A128A116030E1
:100BF60083120313A0002008B5006930A000200866
:100C0600F400F501F50A35080A128A11A7240A121A
:100C16008A11733083120313A0002008F400F50133
:100C2600F50A35080A128A11A7240A128A11013018
:100C360083120313A0002008B50768303502031C91
:100C4600252E262E002E6930A0002008B500350876
:100C5600A0002008F400F501F50A60300A128A1196
:100C6600A7240A128A11831203133508A00020084C
:100C7600F400F501F50A68300A128A11A7240A124F
:100C86008A11013083120313A0002008B5077330C0
:100C96003502031C4F2E502E2A2E6B30A000200842
:100CA600F4004430A1002108F50062300A128A11CE
:100CB6006B240A128A11563083120313A0002008EF
:100CC600B5006930A0002008F400F501F50A3508E2
:100CD6000A128A11A7240A128A1173308312031387
:100CE600A0002008F400F501F50A35080A128A1159
:100CF600A7240A128A11013083120313A0002008C8
:100D0600B5075E303502031C892E8A2E642E6930A3
:100D1600A0002008B5003508A0002008F400F50161
:100D2600F50A56300A128A11A7240A128A1183126A
:100D360003133508A0002008F400F501F50A5E301B
:100D46000A128A11A7240A128A1101308312031388
:100D5600A0002008B50773303502031CB32EB42E4D
:100D66008E2E6B30A0002008F4004C30A100210824
:100D7600F50058300A128A116B240A128A1128309B
:100D860083120313A0002008B5003230A00020080B
:100D9600B4003230A0002008F400F501F50A28302E
:100DA6000A128A11A7240A128A110B1DDB2EDC2EC9
:100DB600552F831203130108833E81000B11013066
:100DC600A0002008B00719303006031DEB2EEC2ECC
:100DD600552FB0013408A0002008F400F5013508AD
:100DE6000A128A11A7240A128A11092F0130B402A5
:100DF600212F0130A0002008B507212F0130A000C7
:100E06002008B407212F0130B502212F83120313C6
:100E16003108A000A1012108003A0319132F212F40
:100E26002008013A0319F92E033A0319FC2E013A58
:100E36000319012F073A0319062F212F0530350212
:100E46000318262F272F2B2F5230A0002008B5007D
:100E560053303502031C302F312F352F0530A000BB
:100E66002008B5001130340203183A2F3B2F3F2FCC
:100E76007230A0002008B40073303402031C442FE3
:100E8600452F492F1130A0002008B4003408A000D7
:100E96002008F400F501F50A35080A128A11A7247C
:100EA6000A128A11831203138C1E5A2F5B2FD82E17
:100EB6001A08A0002008B20080303202031C642FFA
:100EC600652F6B2F3208A0002008A500B3017D2FE7
:100ED6003208A0003308263E8400200883138000D1
:100EE600093033020318782F792F7D2F0130A000A7
:100EF6002008B307C8302506031D822F832FD82E5E
:100F060002303306031D882F892FD82E6030260223
:100F1600031C8E2F8F2FA32F693026020318942FC0
:100F2600952FA32F5D302702031C9A2F9B2FA32FEB
:100F3600683027020318A02FA12FA32FB101B10AF1
:100F46006A302602031CA82FA92FBF2F7330260252
:100F56000318AE2FAF2FBF2F69302702031CB42F03
:100F6600B52FBF2F743027020318BA2FBB2FBF2F00
:100F76000230A0002008B10060302602031CC42FF6
:100F8600C52FDB2F693026020318CA2FCB2FDB2F84
:100F960069302702031CD02FD12FDB2F7430270294
:100FA6000318D62FD72FDB2F0330A0002008B1005F
:100FB60056302602031CE02FE12FF82F5F30260261
:100FC6000318E62FE72FF82F69302702031CEC2FB2
:100FD600ED2FF82F743027020318F22FF32FF82F76
:100FE6000430A0002008B100D82ED82E0A128A118B
:0A0FF600002883010A128A11C92C99
:04400E00D4E0FFFFFC
:00000001FF
