:020000040000FA
:060000000A128A11E42F30
:1003440001340034003400348630F4007408F500BD
:10035400F001F00A75300A128A11B3210A128A11C7
:100364000800F300F201C729831203130C1EBB29F2
:10037400BC29B62972087307F100710884000008CB
:1003840099000130F1007108F20770087202031C31
:10039400CC29CD29B6290800F7008230F60076086A
:1003A400F8007708F6007608F9007408F600760875
:1003B400FA007508F6007608FB000430F6007608AB
:1003C400F00078300A128A11B3210A128A11080047
:1003D400F8008430F7007708F9007808F700770808
:1003E400FA007408F7007708FB007508F70077082F
:1003F400FC007608F7007708FD000530F700770861
:10040400F00079300A128A11B3210A128A11080005
:10041400F7007708F6007608F9007408F600760805
:10042400FA0075080319172A182A1D2A8030F600C5
:100434007608F800212A8130F6007608F8000330A7
:10044400F6007608F00078300A128A11B3210A12F5
:100454008A1108000030FC000030FB000030FA0074
:100464000030F900701C372A382A4F2A7408F9071B
:10047400750803110318013E0319412AFA07760887
:1004840003110318013E0319482AFB0777080311D7
:100494000318013E03194F2AFC070130F80003102A
:1004A400F40DF50DF60DF70DF80B512A013003107C
:1004B400F30CF20CF10CF00CFF3E031D592A7308E7
:1004C400720471047004031D682A692A342A7C08A2
:1004D400F3007B08F2007A08F1007908F0000800C4
:1004E400831203134B08F3004A08F2004908F10091
:1004F4004808F0004130F700C630F6004E30F500F1
:100504006D30F4000A128A112C220A128A1173081F
:1005140083120313CB007208CA007108C900700863
:10052400C8003930C807303003183130C9070030EB
:1005340003180130CA07003003180130CB074808FC
:10054400A2004908A3004A08A4004B08A5001030E3
:10055400A600250DA50CA40CA30CA20CA60BAB2A7B
:10056400FF302205A0007F302305A100080083127C
:100574000313AC01AA1FBF2AC02AC72AA909AA09C2
:10058400A90A0319AA0AAC01AC0AA81FCA2ACB2AD1
:10059400D02AA709A809A70A0319A80A2708280422
:1005A4000319D52AD62A052BAB01AB0AE42A01305C
:1005B4000310A70DA80DFF3E031DDA2A0130FD002C
:1005C4007D08AB07A81FE72AE82AD92A28082A02A7
:1005D400031DEE2A27082902031CF12AF22AF82A0D
:1005E4002708A9022808031CAA03AA020130031041
:1005F400A80CA70CFF3E031DF92A0130AB02031D12
:10060400042B052BE82A2C080319092B0A2B0F2B82
:10061400A909AA09A90A0319AA0A2A08A8002908E3
:10062400A7000800F601F11F182B192B202BF00945
:10063400F109F00A0319F10AF601F60AF31F232B54
:10064400242B2D2BF209F309F20A0319F30A0130C2
:10065400F4007408F606F701F80170087104031930
:10066400342B352B6C2BF501F50A432B0130031089
:10067400F00DF10DFF3E031D392B0130F400740819
:10068400F507F11F462B472B382B01300310F70DCC
:10069400F80DFF3E031D482B71087302031D542BF4
:1006A40070087202031C572B582B5F2B7008F20240
:1006B4007108031CF303F302771401300310F10CE7
:1006C400F00CFF3E031D602B0130F502031D6B2B64
:1006D4006C2B472B76080319702B712B762BF7099B
:1006E400F809F70A0319F80A7808F1007708F00006
:1006F400080083120313C3010230AD002D08BF00AC
:10070400C001C1018316031305148316031788015E
:100714008901043083160313810098161815831277
:1007240003139817181683160317871119308316A5
:10073400031399009A010A128A11A6210A128A1136
:10074400103083120313AD002D08F4005030AE00B6
:100754002E08F5006430AF002F08F60004300A12AA
:100764008A11EA210A128A11103083120313AD0090
:100774002D08F4003030AE002E08F50056300A1271
:100784008A11CE210A128A11103083120313AD008C
:100794002D08F4003030AE002E08F5005C300A124B
:1007A4008A11CE210A128A11103083120313AD006C
:1007B4002D08F4003030AE002E08F50062300A1225
:1007C4008A11CE210A128A11603083120313AD00FC
:1007D4002D08C70068304702031CF12BF22BF32BC2
:1007E400142C5D30AD002D08F400F501F50A47081E
:1007F4000A128A110A220A128A1167308312031319
:10080400AD002D08F400F501F50A47080A128A1113
:100814000A220A128A11013083120313AD002D0833
:10082400C707EC2B5D30AD002D08C70067304702C9
:10083400031C1D2C1E2C1F2C452C4708AD002D0815
:10084400F400F501F50A60300A128A110A220A122C
:100854008A11831203134708AD002D08F400F50133
:10086400F50A68300A128A110A220A128A11013022
:1008740083120313AD002D08C70767304702031C1A
:10088400442C452C1F2C5F30AD002D08F40055304E
:10089400AE002E08F50062300A128A11CE210A1227
:1008A4008A116A3083120313AD002D08C700723019
:1008B4004702031C5E2C5F2C602C812C6930AD0038
:1008C4002D08F400F501F50A47080A128A110A22D4
:1008D4000A128A11733083120313AD002D08F40039
:1008E400F501F50A47080A128A110A220A128A1126
:1008F400013083120313AD002D08C707592C69304A
:10090400AD002D08C70073304702031C8A2C8B2CC2
:100914008C2CB22C4708AD002D08F400F501F50A23
:100924006A300A128A110A220A128A1183120313E4
:100934004708AD002D08F400F501F50A72300A12DB
:100944008A110A220A128A11013083120313AD009C
:100954002D08C70773304702031CB12CB22C8C2C12
:100964006B30AD002D08F4005230AE002E08F500B7
:100974006C300A128A11CE210A128A116030831255
:100984000313AD002D08C70068304702031CCB2CAD
:10099400CC2CCD2CEE2C6930AD002D08F400F501E3
:1009A400F50A47080A128A110A220A128A117330B8
:1009B40083120313AD002D08F400F501F50A47086E
:1009C4000A128A110A220A128A11013083120313AD
:1009D400AD002D08C707C62C6930AD002D08C7002F
:1009E40073304702031CF72CF82CF92C1F2D4708F1
:1009F400AD002D08F400F501F50A60300A128A11E1
:100A04000A220A128A11831203134708AD002D0823
:100A1400F400F501F50A68300A128A110A220A1252
:100A24008A11013083120313AD002D08C7077330F8
:100A34004702031C1E2D1F2DF92C6B30AD002D0811
:100A4400F4004430AE002E08F50062300A128A1118
:100A5400CE210A128A11563083120313AD002D08D9
:100A6400C7005E304702031C382D392D3A2D5B2D0B
:100A74006930AD002D08F400F501F50A47080A12A3
:100A84008A110A220A128A11733083120313AD00E9
:100A94002D08F400F501F50A47080A128A110A2202
:100AA4000A128A11013083120313AD002D08C707FF
:100AB400332D6930AD002D08C70073304702031C85
:100AC400642D652D662D8C2D4708AD002D08F4008E
:100AD400F501F50A56300A128A110A220A128A11FD
:100AE400831203134708AD002D08F400F501F50A3D
:100AF4005E300A128A110A220A128A110130831204
:100B04000313AD002D08C70773304702031C8B2D58
:100B14008C2D662D6B30AD002D08F4004C30AE00EA
:100B24002E08F50058300A128A11CE210A128A11B1
:100B3400283083120313AD002D08C7003230AD00F6
:100B44002D08C6004608AD002D08F400F501F50A8D
:100B540047080A128A110A220A128A114E30831295
:100B64000313A7000030A8000A128A1172220A1285
:100B74008A11831203132108AA002008A9000A126B
:100B84008A11B9220A128A11831203132708053E17
:100B9400AD002D08C4006230A7000030A8000A127E
:100BA4008A1172220A128A11831203132108AA00DD
:100BB4002008A9000A128A11B9220A128A11831282
:100BC40003132708113EAD002D08C5004508AD00EC
:100BD4002D08F400F501F50A44080A128A110A22C4
:100BE4000A128A110B1DF72DF82D712E831203138F
:100BF4000108833E81000B110130AD002D08BB07B5
:100C040019303B06031D072E082E712EBB01460822
:100C1400AD002D08F400F50147080A128A110A22D2
:100C24000A128A11252E0130C6023D2E0130AD0074
:100C34002D08C7073D2E0130AD002D08C6073D2EF7
:100C44000130C7023D2E831203133F08AD00AE01ED
:100C54002E08003A03192F2E3D2E2D08013A0319B0
:100C6400152E033A0319182E013A03191D2E073ABB
:100C74000319222E3D2E053047020318422E432E1F
:100C8400472E5230AD002D08C70053304702031CD5
:100C94004C2E4D2E512E0530AD002D08C7001130BD
:100CA40046020318562E572E5B2E7230AD002D08C7
:100CB400C60073304602031C602E612E652E11306F
:100CC400AD002D08C6004608AD002D08F400F5015E
:100CD400F50A47080A128A110A220A128A11831293
:100CE40003138C1E762E772E132F1A08AD002D08B1
:100CF400C20080304202031C802E812E872E4208BF
:100D0400AD002D08B000C301992E4208AD00430880
:100D1400313E84002D0883138000093043020318F8
:100D2400942E952E992E0130AD002D08C307C8309E
:100D34003006031D9E2E9F2E132F02304306031DE3
:100D4400A42EA52E132F60303102031CAA2EAB2E25
:100D5400BF2E693031020318B02EB12EBF2E5D3084
:100D64003202031CB62EB72EBF2E6830320203188F
:100D7400BC2EBD2EBF2EBF01BF0A6A303102031C38
:100D8400C42EC52EDB2E733031020318CA2ECB2E8F
:100D9400DB2E69303202031CD02ED12EDB2E7430B0
:100DA40032020318D62ED72EDB2E0230AD002D08CA
:100DB400BF0060303102031CE02EE12EF72E6930B3
:100DC40031020318E62EE72EF72E69303202031C97
:100DD400EC2EED2EF72E743032020318F22EF32E81
:100DE400F72E0330AD002D08BF0056303102031C2E
:100DF400FC2EFD2E132F5F3031020318022F032F18
:100E0400132F69303202031C082F092F132F74305B
:100E1400320203180E2F0F2F132F0430AD002D08AC
:100E2400BF0047084406031D182F192FF42D460848
:100E34004506031D1E2F1F2FF42D4508AD002D0858
:100E4400F400F50144080A128A110A220A128A11CE
:100E54004E3083120313A7000030A8000A128A112F
:100E640072220A128A11831203132108AA0020088D
:100E7400A9000A128A11B9220A128A1183120313D1
:100E84002708053EAD002D08C4006230A7000030DD
:100E9400A8000A128A1172220A128A1183120313F9
:100EA4002108AA002008A9000A128A11B9220A12EC
:100EB4008A11831203132708113EAD002D08C500C3
:100EC4004508AD002D08F400F501F50A44080A129E
:100ED4008A110A220A128A11013083120313C007ED
:100EE4000318C10A0030C1076430F0000030F1007B
:100EF4004108F3004008F2000A128A1114230A126E
:100F04008A11700883120313AD002D08BC000A3047
:100F1400F0000030F1004108F3004008F2000A122A
:100F24008A1114230A128A11700883120313AD0064
:100F34002D08BD000A30A7000030A8004108AA000F
:100F44004008A9000A128A11B9220A128A118312CE
:100F540003132708AD002D08BE001030AD002D0886
:100F6400F4003C08303EAE002E08F50056300A125C
:100F74008A11CE210A128A11103083120313AD0094
:100F84002D08F4003D08303EAE002E08F5005C301C
:100F94000A128A11CE210A128A1110308312031305
:100FA400AD002D08F4003E08303EAE002E08F500DA
:100FB40062300A128A11CE210A128A11F42D0A1201
:100FC4008A1100280A128A11A2210A128A11C80061
:100FD4000A128A11A3210A128A11C9000A128A115B
:100FE400A4210A128A11CA000A128A11A5210A121E
:0C0FF4008A11CB0083010A128A117B2BAA
:04400E00D4E0FFFFFC
:00000001FF
